8=FIX.4.4|9=97|35=A|34=1|49=QUICKFIX_INITIATOR2|52=20230413-08:48:32.101|56=QUICKFIX_ACCEPTOR|98=0|108=30|141=Y|10=233|8=FIX.4.4|9=79|35=0|34=2|49=QUICKFIX_INITIATOR2|52=20230413-08:49:02.692|56=QUICKFIX_ACCEPTOR|10=160|8=FIX.4.4|9=79|35=0|34=3|49=QUICKFIX_INITIATOR2|52=20230413-08:49:33.090|56=QUICKFIX_ACCEPTOR|10=157|8=FIX.4.4|9=79|35=0|34=4|49=QUICKFIX_INITIATOR2|52=20230413-08:50:03.087|56=QUICKFIX_ACCEPTOR|10=153|8=FIX.4.4|9=79|35=0|34=5|49=QUICKFIX_INITIATOR2|52=20230413-08:50:33.089|56=QUICKFIX_ACCEPTOR|10=159|8=FIX.4.4|9=79|35=0|34=6|49=QUICKFIX_INITIATOR2|52=20230413-08:51:03.092|56=QUICKFIX_ACCEPTOR|10=152|8=FIX.4.4|9=79|35=0|34=7|49=QUICKFIX_INITIATOR2|52=20230413-08:51:33.092|56=QUICKFIX_ACCEPTOR|10=156|8=FIX.4.4|9=79|35=0|34=8|49=QUICKFIX_INITIATOR2|52=20230413-08:52:03.089|56=QUICKFIX_ACCEPTOR|10=161|8=FIX.4.4|9=79|35=0|34=9|49=QUICKFIX_INITIATOR2|52=20230413-08:52:33.092|56=QUICKFIX_ACCEPTOR|10=159|8=FIX.4.4|9=80|35=0|34=10|49=QUICKFIX_INITIATOR2|52=20230413-08:53:03.093|56=QUICKFIX_ACCEPTOR|10=190|8=FIX.4.4|9=80|35=0|34=11|49=QUICKFIX_INITIATOR2|52=20230413-08:53:33.092|56=QUICKFIX_ACCEPTOR|10=193|8=FIX.4.4|9=80|35=0|34=12|49=QUICKFIX_INITIATOR2|52=20230413-08:54:03.092|56=QUICKFIX_ACCEPTOR|10=192|