8=FIX.4.2|9=117|35=V|34=1|49=qafix164|52=20230504-06:06:19.510|56=IB|262=mockedMDReqID|263=1|146=2|55=mockedSymbol1|55=mockedSymbol2|10=143|8=FIX.4.2|9=118|35=D|34=2|49=qafix164|52=20230504-06:06:24.673|56=IB|1=U010164|11=mockedClOrdID|21=1|38=45|40=2|44=25.88|54=1|55=AAPL|10=191|8=FIX.4.2|9=117|35=V|34=3|49=qafix164|52=20230504-06:07:47.119|56=IB|262=mockedMDReqID|263=1|146=2|55=mockedSymbol1|55=mockedSymbol2|10=152|8=FIX.4.2|9=118|35=D|34=4|49=qafix164|52=20230504-06:07:52.505|56=IB|1=U010164|11=mockedClOrdID|21=1|38=45|40=2|44=25.88|54=1|55=AAPL|10=189|8=FIX.4.2|9=117|35=V|34=5|49=qafix164|52=20230504-06:11:36.638|56=IB|262=mockedMDReqID|263=1|146=2|55=mockedSymbol1|55=mockedSymbol2|10=153|8=FIX.4.2|9=118|35=D|34=6|49=qafix164|52=20230504-06:11:41.988|56=IB|1=U010164|11=mockedClOrdID|21=1|38=45|40=2|44=25.88|54=1|55=AAPL|10=199|8=FIX.4.2|9=117|35=V|34=7|49=qafix164|52=20230504-06:12:20.023|56=IB|262=mockedMDReqID|263=1|146=2|55=mockedSymbol1|55=mockedSymbol2|10=137|8=FIX.4.2|9=118|35=D|34=8|49=qafix164|52=20230504-06:12:25.527|56=IB|1=U010164|11=mockedClOrdID|21=1|38=45|40=2|44=25.88|54=1|55=AAPL|10=193|