8=FIX.4.4|9=97|35=A|34=1|49=QUICKFIX_INITIATOR1|52=20230413-08:48:32.095|56=QUICKFIX_ACCEPTOR|98=0|108=30|141=Y|10=244|8=FIX.4.4|9=79|35=0|34=2|49=QUICKFIX_INITIATOR1|52=20230413-08:49:02.087|56=QUICKFIX_ACCEPTOR|10=157|8=FIX.4.4|9=79|35=0|34=3|49=QUICKFIX_INITIATOR1|52=20230413-08:49:32.091|56=QUICKFIX_ACCEPTOR|10=156|8=FIX.4.4|9=79|35=0|34=4|49=QUICKFIX_INITIATOR1|52=20230413-08:50:02.090|56=QUICKFIX_ACCEPTOR|10=145|8=FIX.4.4|9=79|35=0|34=5|49=QUICKFIX_INITIATOR1|52=20230413-08:50:32.088|56=QUICKFIX_ACCEPTOR|10=156|8=FIX.4.4|9=79|35=0|34=6|49=QUICKFIX_INITIATOR1|52=20230413-08:51:02.094|56=QUICKFIX_ACCEPTOR|10=152|8=FIX.4.4|9=79|35=0|34=7|49=QUICKFIX_INITIATOR1|52=20230413-08:51:32.093|56=QUICKFIX_ACCEPTOR|10=155|8=FIX.4.4|9=79|35=0|34=8|49=QUICKFIX_INITIATOR1|52=20230413-08:52:02.090|56=QUICKFIX_ACCEPTOR|10=151|8=FIX.4.4|9=79|35=0|34=9|49=QUICKFIX_INITIATOR1|52=20230413-08:52:32.089|56=QUICKFIX_ACCEPTOR|10=163|8=FIX.4.4|9=80|35=0|34=10|49=QUICKFIX_INITIATOR1|52=20230413-08:53:02.093|56=QUICKFIX_ACCEPTOR|10=188|8=FIX.4.4|9=80|35=0|34=11|49=QUICKFIX_INITIATOR1|52=20230413-08:53:32.090|56=QUICKFIX_ACCEPTOR|10=189|8=FIX.4.4|9=80|35=0|34=12|49=QUICKFIX_INITIATOR1|52=20230413-08:54:02.092|56=QUICKFIX_ACCEPTOR|10=190|